:100000000C94E1000C9412010C9412010C94120156
:100010000C9412010C9412010C9412010C94120114
:100020000C9412010C9412010C9412010C94120104
:100030000C9412010C9412010C9412010C941201F4
:100040000C9412010C9412010C9412010C941201E4
:100050000C9412010C9412010C9412010C942F05B3
:100060000C9412010C94FC040C9424040C941201C2
:100070000C9412010C9412010C9412010C941201B4
:100080000C9412010C9412010C9412010C941201A4
:100090000C94C9040C94E5030C9412010C94120105
:1000A0000C9412010C9412010C9412010C94120184
:1000B0000C9412010C9412010C9412010C94120174
:1000C0000C9412010C9412010C9412010C949604DD
:1000D0000C94A6030C9412010C9463040C94670313
:1000E0000C9412010C9479050C9415010C94870161
:1000F0000C9467010C94CD010C945C010C94A30149
:1001000000002200250028002B002E0031003400C2
:1001100002010000050108010B010000210024007C
:1001200027002A002D0030003300010100000401E7
:1001300007010A0105050505070508080808020268
:1001400002020A0A08080404040401010101010171
:1001500001010303030303030303040707070C0C54
:100160000C0C0C0C0C0C020202020606060606061B
:1001700006060B0B0B0B0B0B0B0B010210202008C0
:1001800008102040102040800201020108040201F2
:100190000102040810204080804020100804020161
:1001A00080040201804020100804020108040201BA
:1001B0000102040810204080010204081020408041
:1001C000790511241FBECFEFD1E2DEBFCDBF00E025
:1001D0000CBF12E0A0E0B2E0E4EFF4E100E00BBFFE
:1001E00002C007900D92A234B107D9F724E0A2E42F
:1001F000B2E001C01D92A33FB207E1F710E0C1EEEB
:10020000D0E000E006C021970109802FFE010E9486
:10021000700AC03ED10780E00807A9F70E944B068C
:100220000C94CF070C94000008950F931F93CF9365
:10023000DF93FC01A685B7858D01005C1F4FE801A7
:100240008881998101968F739927AD014E5B5F4F2D
:10025000EA012881398128173907D1F3E80128817B
:100260003981A20FB31F6C93A685B785A05CBF4FE1
:1002700011969C938E93A689B7892C9181E090E08A
:10028000078C02C0880F991F0A94E2F7822B8C9387
:1002900081E081A30488F589E02D808180648083DA
:1002A00081E090E0DF91CF911F910F910895682F29
:1002B00081ED94E00C941501FC0181A1882329F0C3
:1002C000A489B5898C9186FFFBCF11A20895FC010A
:1002D000A485B585FD01E05CFF4F20813181329618
:1002E000808191812817390779F080819181A80F49
:1002F000B91F8C91208131812F5F3F4F2F7333279E
:100300003183208390E008958FEF9FEF0895DC0103
:100310001C96ED91FC911D97DF01A05CBF4F2D91C4
:100320003C91119712968D919C911197281739073E
:1003300039F08D919C91E80FF91F808190E008952C
:100340008FEF9FEF0895FC0124853585F901E05C6E
:10035000FF4F80819181329620813181821B930BE6
:100360008F7399270895FB01E05CFF4F2081318155
:10037000DB01AE5BBF4F4D915C912F5F3F4F2F7301
:1003800033274217530741F040815181DB01A40F0D
:10039000B51F8C93318320830895CF92DF92EF9223
:1003A000FF920F931F93CF93DF936C01EB017B01BF
:1003B000E40EF51E00E010E0CE15DF0561F0699156
:1003C000D601ED91FC910190F081E02DC6011995C7
:1003D000080F191FF1CFC801DF91CF911F910F9125
:1003E000FF90EF90DF90CF9008953FB7F894809101
:1003F000470290914802A0914902B0914A0226B565
:10040000A89B05C02F3F19F00196A11DB11D3FBF4C
:10041000BA2FA92F982F8827820F911DA11DB11DDA
:10042000BC01CD0142E0660F771F881F991F4A95D6
:10043000D1F70895009769F0FC0101900020E9F7D9
:100440003197AF01481B590BBC0181ED94E00C942E
:10045000CD0180E090E008958F929F92AF92BF927D
:10046000EF92FF920F931F93CF93DF93CDB7DEB739
:10047000A1970FB6F894DEBF0FBECDBF162F042F85
:1004800019A2423008F40AE07E0121E2E20EF11CDA
:10049000802E912CA12CB12C612FA50194010E94DA
:1004A000FC07029F1019112481E0E81AF1081A30A4
:1004B00014F4105D01C0195CF7011083122F732F23
:1004C000CA01232B242B252B39F7C7010E941A02BE
:1004D000A1960FB6F894DEBF0FBECDBFDF91CF91CE
:1004E0001F910F91FF90EF90BF90AF909F908F90D2
:1004F00008954F925F926F927F928F929F92AF92E8
:10050000BF92CF92DF92EF92FF92CF93DF936B0176
:100510007C01B42E9B01AC010E946B0A882319F068
:1005200080E192E027C026013701E89477F82FEFA9
:100530003FEF4FE75FE7C301B2010E946B0A8111F1
:100540000DC02FEF3FEF4FE75FE7C301B2010E94FD
:100550009A0818161CF484E192E00CC02FEF3FEFCC
:100560004FE75FE4C701B6010E94F909181694F439
:1005700088E192E0DF91CF91FF90EF90DF90CF90F4
:10058000BF90AF909F908F907F906F905F904F90B3
:100590000C941A022FEF3FEF4FE75FECC701B60153
:1005A0000E949A0887FDE4CF20E030E0A901C7014E
:1005B000B6010E949A0887FF09C08DE20E94570188
:1005C000EC01F7FAF094F7F8F09402C0C0E0D0E044
:1005D000A12C60E070E080E09FE3BA1441F020E0DD
:1005E00030E040E251E40E949F08A394F6CFA701B7
:1005F00096010E942E086B017C010E9418092B01B4
:100600003C014AE00E942C02C80FD91FBB2009F40C
:100610004EC0C301B2010E9447099B01AC01C70152
:10062000B6010E942D082B013C018CE192E00E9452
:100630001A02C80FD91FFB2C20E030E040E251E441
:10064000C301B2010E94FE092B013C010E94110965
:100650004B01770FAA08BB08B7FE13C08DE20E94BA
:1006600057016C0188279927DC0188199909AA0983
:10067000BB094AE0BC01CD010E942C028C0D9D1DDE
:1006800005C04AE0C501B4010E942C02C80FD91F61
:10069000C501B4010E9449099B01AC01C301B2012B
:1006A0000E942D082B013C01FA94F110C5CFCE0118
:1006B000DF91CF91FF90EF90DF90CF90BF90AF9000
:1006C0009F908F907F906F905F904F9008951F92B2
:1006D0000F920FB60F9211240BB60F922F933F93E8
:1006E0008F939F93EF93FF9320918B0230918C0215
:1006F00080918D0290918E022817390731F48091F4
:1007000031018F7D8093310114C0E0918D02F09111
:100710008E02E55BFD4F208180918D0290918E02CB
:1007200001968F73992790938E0280938D02209368
:100730003601FF91EF919F918F913F912F910F90F3
:100740000BBE0F900FBE0F901F9018951F920F9227
:100750000FB60F9211240BB60F922F933F938F93E6
:100760009F93EF93FF93209135033091360380914F
:100770003703909138032817390731F48091D1005D
:100780008F7D8093D10014C0E0913703F09138033E
:10079000EB50FD4F208180913703909138030196F3
:1007A0008F73992790933803809337032093D60053
:1007B000FF91EF919F918F913F912F910F900BBEE1
:1007C0000F900FBE0F901F9018951F920F920FB6AB
:1007D0000F9211240BB60F922F933F938F939F93F9
:1007E000EF93FF932091DF033091E0038091E103C9
:1007F0009091E2032817390731F48091C9008F7D69
:100800008093C90014C0E091E103F091E203E15646
:10081000FC4F20818091E1039091E20301968F7358
:1008200099279093E2038093E1032093CE00FF91F8
:10083000EF919F918F913F912F910F900BBE0F9051
:100840000FBE0F901F9018951F920F920FB60F9228
:1008500011240BB60F922F933F938F939F93EF9397
:10086000FF932091890430918A0480918B049091A8
:100870008C042817390731F48091C1008F7D809353
:10088000C10014C0E0918B04F0918C04E75BFB4F36
:10089000208180918B0490918C0401968F7399270D
:1008A00090938C0480938B042093C600FF91EF916A
:1008B0009F918F913F912F910F900BBE0F900FBE84
:1008C0000F901F9018951F920F920FB60F92112440
:1008D0000BB60F922F933F934F935F936F937F933A
:1008E0008F939F93AF93BF93EF93FF9380913001CA
:1008F00082FD07C0809136016FE872E00E94B3016B
:1009000002C080913601FF91EF91BF91AF919F910D
:100910008F917F916F915F914F913F912F910F90A8
:100920000BBE0F900FBE0F901F9018951F920F9245
:100930000FB60F9211240BB60F922F933F934F9344
:100940005F936F937F938F939F93AF93BF93EF9337
:10095000FF938091D00082FD07C08091D60069E3AB
:1009600073E00E94B30102C08091D600FF91EF9125
:10097000BF91AF919F918F917F916F915F914F91B7
:100980003F912F910F900BBE0F900FBE0F901F90B5
:1009900018951F920F920FB60F9211240BB60F925B
:1009A0002F933F934F935F936F937F938F939F9377
:1009B000AF93BF93EF93FF938091C80082FD07C070
:1009C0008091CE0063EE73E00E94B30102C080917B
:1009D000CE00FF91EF91BF91AF919F918F917F9149
:1009E0006F915F914F913F912F910F900BBE0F90A0
:1009F0000FBE0F901F9018951F920F920FB60F9277
:100A000011240BB60F922F933F934F935F936F93E5
:100A10007F938F939F93AF93BF93EF93FF938091B7
:100A2000C00082FD07C08091C6006DE874E00E949E
:100A3000B30102C08091C600FF91EF91BF91AF91C9
:100A40009F918F917F916F915F914F913F912F91E6
:100A50000F900BBE0F900FBE0F901F9018951F9216
:100A60000F920FB60F9211242F933F938F939F9362
:100A7000AF93BF938091430290914402A0914502AD
:100A8000B09146023091420223E0230F2D3720F42B
:100A90000196A11DB11D05C026E8230F0296A11DD8
:100AA000B11D209342028093430290934402A0938D
:100AB0004502B09346028091470290914802A0916E
:100AC0004902B0914A020196A11DB11D80934702CF
:100AD00090934802A0934902B0934A02BF91AF910C
:100AE0009F918F913F912F910F900FBE0F901F906C
:100AF0001895CF92DF92EF92FF92E1EDF4E013822E
:100B0000128288EEC82E83E0D82EE12CF12CC4820C
:100B1000D582E682F78264E072E0718360838DE8BB
:100B200094E09587848789E494E09787868785ECAD
:100B300090E0918B808B84EC90E0938B828B80ECA7
:100B400090E0958B848B81EC90E0978B868B82EC88
:100B500090E0918F808F86EC90E0938F828F44E0BD
:100B6000448F33E0358F27E0268F95E0978F81E023
:100B700080A3E7E2F4E013821282C482D582E68287
:100B8000F78271836083A3EEB3E0B587A487AFE9F2
:100B9000B3E0B787A687ADECB0E0B18BA08BACEC2F
:100BA000B0E0B38BA28BA8ECB0E0B58BA48BA9EC22
:100BB000B0E0B78BA68BAAECB0E0B18FA08FAEEC03
:100BC000B0E0B38FA28F448F358F268F978F80A38D
:100BD000EDE7F3E013821282C482D582E682F782C7
:100BE00071836083A9E3B3E0B587A487A5EFB2E082
:100BF000B787A687A5EDB0E0B18BA08BA4EDB0E0E0
:100C0000B38BA28BA0EDB0E0B58BA48BA1EDB0E0CF
:100C1000B78BA68BA2EDB0E0B18FA08FA6EDB0E0B0
:100C2000B38FA28F448F358F268F978F80A3E3EDEC
:100C3000F2E013821282C482D582E682F782718347
:100C400060836FE872E0758764876BE472E0778792
:100C5000668765E371E0718B608B64E371E0738B91
:100C6000628B60E371E0758B648B61E371E0778B7D
:100C7000668B62E371E0718F608F66E371E0738F62
:100C8000628F448F358F268F978F80A3FF90EF90D0
:100C9000DF90CF900895789484B5826084BD84B548
:100CA000816084BD85B5826085BD85B5816085BD67
:100CB00080916E00816080936E001092810080911F
:100CC00081008260809381008091810081608093A7
:100CD0008100809180008160809380008091B100CC
:100CE00084608093B1008091B00081608093B000F7
:100CF0008091910082608093910080919100816049
:100D00008093910080919000816080939000809109
:100D1000A10082608093A1008091A10081608093F6
:100D2000A1008091A00081608093A00080912101AA
:100D30008260809321018091210181608093210153
:100D40008091200181608093200180917A008460ED
:100D500080937A0080917A00826080937A008091FB
:100D60007A00816080937A0080917A008068809315
:100D70007A001092C100E091E504F091E60481E070
:100D800090E09C010090F10402C0220F331F0A94EE
:100D9000E2F72083E091E104F091E2041082E09117
:100DA000E304F091E4042FEC20831092F204E0912C
:100DB000E704F091E80440819C010090ED0402C03A
:100DC000220F331F0A94E2F7242B2083E091E704DB
:100DD000F091E80440819C010090EE0402C0220FD3
:100DE000331F0A94E2F7242B2083E091E704F0916B
:100DF000E80440819C010090EF0402C0220F331FE1
:100E00000A94E2F7242B2083E091E704F091E804B0
:100E100020810090F00402C0880F991F0A94E2F725
:100E2000809582238083E0EBF1E02491EAE6F1E013
:100E300084918823C1F090E0880F991FFC01E65E41
:100E4000FE4FC591D491FC01E050FF4FA591B491A4
:100E50009FB7F8948881E22FE0958E2388838C9148
:100E6000E823EC939FBF10E49CEBC92E94E3D92EAA
:100E7000E12CF12C80917B00877F80937B00109385
:100E80007C0080917A00806480937A0080917A005F
:100E900086FDFCCF609178008091790070E0782B1E
:100EA000072E000C880B990B0E94490929E23CE5AA
:100EB0004FE950E40E94FE0920E030EC4FE754E493
:100EC0000E949F089B01AC0169E27CE58FE990E4F8
:100ED0000E949F0820E030E040E85FE30E942D0878
:100EE00020E030E64AE656E40E94FE094B015C0130
:100EF0008EE192E00E941A0242E0C501B4010E9414
:100F000079028BE292E00E941A028DE00E94570162
:100F10008AE00E94570181E392E00E941A02C50113
:100F2000B4010E9411099B01AC01285C32434109C4
:100F30005109AAE5B0E00E94F107A70196010E94BD
:100F4000D207CA01B9010E94490942E00E94790210
:100F500088E392E00E941A028DE00E9457018AE025
:100F60000E9457010E94F501EB0184EF882E99241D
:100F70009394A12CB12C0E94F5016C1B7D0B683E53
:100F80007340C8F381E0881A9108A108B108C851DC
:100F9000DC4F81149104A104B10469F76BCFF8947C
:100FA0000C94780A052E97FB1EF400940E94E90722
:100FB00057FD07D00E94FC0707FC03D04EF40C94A9
:100FC000E90750954095309521953F4F4F4F5F4F22
:100FD000089590958095709561957F4F8F4F9F4FA5
:100FE00008950E941E08A59F900DB49F900DA49F88
:100FF000800D911D11240895A1E21A2EAA1BBB1B7E
:10100000FD010DC0AA1FBB1FEE1FFF1FA217B307D4
:10101000E407F50720F0A21BB30BE40BF50B661FEA
:10102000771F881F991F1A9469F7609570958095AE
:1010300090959B01AC01BD01CF010895A29FB00125
:10104000B39FC001A39F700D811D1124911DB29FFC
:10105000700D811D1124911D08955058BB27AA279A
:101060000E9445080C94BF090E94B10938F00E9403
:10107000B80920F039F49F3F19F426F40C94AE0916
:101080000EF4E095E7FB0C94A809E92F0E94D00923
:1010900058F3BA17620773078407950720F079F4AD
:1010A000A6F50C94F2090EF4E0950B2EBA2FA02DA4
:1010B0000B01B90190010C01CA01A0011124FF2705
:1010C000591B99F0593F50F4503E68F11A16F04000
:1010D000A22F232F342F4427585FF3CF46953795FF
:1010E0002795A795F0405395C9F77EF41F16BA0BC4
:1010F000620B730B840BBAF09150A1F0FF0FBB1F72
:10110000661F771F881FC2F70EC0BA0F621F731FBA
:10111000841F48F4879577956795B795F7959E3F17
:1011200008F0B0CF9395880F08F09927EE0F9795A8
:10113000879508950E94840908F481E008950E942B
:10114000B3080C94BF090E94B80958F00E94B10975
:1011500040F029F45F3F29F00C94A80951110C9438
:10116000F3090C94AE090E94D00968F39923B1F3F6
:10117000552391F3951B550BBB27AA2762177307BD
:10118000840738F09F5F5F4F220F331F441FAA1F51
:10119000A9F335D00E2E3AF0E0E832D0915050400D
:1011A000E695001CCAF72BD0FE2F29D0660F771FBB
:1011B000881FBB1F261737074807AB07B0E809F0A1
:1011C000BB0B802DBF01FF2793585F4F3AF09E3F26
:1011D000510578F00C94A8090C94F3095F3FE4F3EF
:1011E000983ED4F3869577956795B795F7959F5F69
:1011F000C9F7880F911D9695879597F90895E1E0B5
:10120000660F771F881FBB1F621773078407BA0713
:1012100020F0621B730B840BBA0BEE1F88F7E0956E
:1012200008950E9418096894B1110C94F309089567
:101230000E94D80988F09F5798F0B92F9927B75185
:10124000B0F0E1F0660F771F881F991F1AF0BA956A
:10125000C9F714C0B13091F00E94F209B1E00895CD
:101260000C94F209672F782F8827B85F39F0B93FBF
:10127000CCF3869577956795B395D9F73EF490951D
:101280008095709561957F4F8F4F9F4F0895E8949B
:1012900009C097FB3EF490958095709561957F4FBE
:1012A0008F4F9F4F9923A9F0F92F96E9BB2793956C
:1012B000F695879577956795B795F111F8CFFAF47C
:1012C000BB0F11F460FF1BC06F5F7F4F8F4F9F4FAD
:1012D00016C0882311F096E911C0772321F09EE80B
:1012E000872F762F05C0662371F096E8862F70E071
:1012F00060E02AF09A95660F771F881FDAF7880F4B
:101300009695879597F90895990F0008550FAA0BA0
:10131000E0E8FEEF16161706E807F907C0F0121608
:101320001306E407F50798F0621B730B840B950B0B
:1013300039F40A2661F0232B242B252B21F4089560
:101340000A2609F4A140A6958FEF811D811D0895FD
:1013500097F99F6780E870E060E008959FEF80EC68
:10136000089500240A94161617061806090608950B
:1013700000240A9412161306140605060895092E71
:101380000394000C11F4882352F0BB0F40F4BF2BE0
:1013900011F460FF04C06F5F7F4F8F4F9F4F089520
:1013A00057FD9058440F551F59F05F3F71F0479516
:1013B000880F97FB991F61F09F3F79F087950895FB
:1013C000121613061406551FF2CF4695F1DF08C01A
:1013D000161617061806991FF1CF86957105610537
:1013E00008940895E894BB2766277727CB0197F9DF
:1013F00008950E94840908F48FEF08950E94110A4D
:101400000C94BF090E94B10938F00E94B80920F07D
:10141000952311F00C94A8090C94AE0911240C9496
:10142000F3090E94D00970F3959FC1F3950F50E026
:10143000551F629FF001729FBB27F00DB11D639F86
:10144000AA27F00DB11DAA1F649F6627B00DA11D2C
:10145000661F829F2227B00DA11D621F739FB00DD2
:10146000A11D621F839FA00D611D221F749F332742
:10147000A00D611D231F849F600D211D822F762FDB
:101480006A2F11249F5750409AF0F1F088234AF0B8
:10149000EE0FFF1FBB1F661F771F881F9150504024
:1014A000A9F79E3F510580F00C94A8090C94F3090C
:1014B0005F3FE4F3983ED4F3869577956795B795AB
:1014C000F795E7959F5FC1F7FE2B880F911D9695C5
:1014D000879597F908950E948409880B990B0895C0
:1014E000EE0FFF1F881F8BBF0790F691E02D199418
:0414F000F894FFCF9E
:1014F400000000001501CD01A301670187015C0113
:101504006E616E00696E66006F7666002E0052652D
:1015140073697374616E63653A2000206F686D733C
:101524000042656E643A20002064656772656573E5
:021534000000B5
:00000001FF
