:100000000C94D0000C94F8000C94F8000C94F800B8
:100010000C94F8000C94F8000C94F8000C94F80080
:100020000C94F8000C94F8000C94F8000C94F80070
:100030000C94F8000C94F8000C94F8000C94F80060
:100040000C946E040C94F8000C943C040C9416046C
:100050000C94F8000C94F8000C94F8000C94F80040
:100060000C94F8000C94F80000407A10F35A00A0A9
:10007000724E18090010A5D4E80000E87648170071
:1000800000E40B54020000CA9A3B000000E1F505B1
:10009000000080969800000040420F000000A086FB
:1000A00001000000102700000000E803000000002D
:1000B0006400000000000A000000000001000000D1
:1000C00000002C76D888DC674F0823DFC1DFAE59EB
:1000D000E1B1B796E5E3E453C63AE651997696E87E
:1000E000E6C28426EB898C9B62ED407C6FFCEFBC02
:1000F0009C9F40F2BAA56FA5F490055A2AF75C932D
:100100006B6CF9676DC11BFCE0E40D47FEF520E662
:10011000B500D0ED902E0300943577050080841E45
:10012000080000204E0A000000C80C333333330FA0
:10013000986E12831141EF8D2114893BE65516CF3D
:10014000FEE6DB18D1844B381BF77C1D901DA4BB49
:10015000E424203284725E228100C9F124ECA1E5FE
:100160003D2700000000250028002B0000000000B3
:10017000240027002A0004040404040404040202E6
:100180000202020203030303030301020408102016
:100190004080010204081020010204081020B80465
:1001A00011241FBECFEFD8E0DEBFCDBF11E0A0E02D
:1001B000B1E0E4E5FAE102C005900D92A635B10781
:1001C000D9F722E0A6E5B1E001C01D92A031B20747
:1001D000E1F710E0C0EDD0E004C02197FE010E94DD
:1001E000220DCF3CD107C9F70E94E5040C944F06BD
:1001F0000C940000CF93DF93E8E9F1E02491E4E868
:10020000F1E084918823C1F090E0880F991FFC01F0
:10021000E459FE4FC591D491FC01EE59FE4FA591D2
:10022000B4919FB7F8948881E22FE0958E2388835C
:100230008C91E823EC939FBFDF91CF910895E091DB
:100240006F01F09170010280F381E02D42E050E0F7
:1002500068E171E08FE691E00994CF93DF93FC01B0
:100260004481558160817181E0916F01F09170014D
:100270000280F381E02D8FE691E00995EC010E9468
:100280001F018C0F9D1FDF91CF91089580E4809313
:100290007C0080917A00806480937A0080917A005B
:1002A00086FDFCCF809178002091790090E0922B20
:1002B0000895FC01538D448D252F30E0842F90E06C
:1002C000821B930B541710F0CF9608950197089551
:1002D000FC01918D828D981761F0828DDF01A80F4E
:1002E000B11D5D968C91928D9F5F9F73928F90E070
:1002F00008958FEF9FEF0895FC01918D828D9817DF
:1003000031F0828DE80FF11D858D90E008958FEF1B
:100310009FEF0895FC01918D228D892F90E0805CE4
:100320009F4F821B91098F7399270895FC01848D3B
:10033000DF01A80FB11DA35ABF4F2C91848D90E00F
:1003400001968F739927848FA689B7892C93A089EA
:10035000B1898C91837080648C93938D848D981374
:1003600006C00288F389E02D80818F7D8083089507
:10037000EF92FF920F931F93CF93DF93EC0181E0F5
:10038000888F9B8D8C8D981305C0E889F9898081B1
:1003900085FD26C0F62E0B8D10E00F5F1F4F0F73EB
:1003A0001127E02E8C8DE8120CC00FB607FCFACF97
:1003B000E889F989808185FFF5CFCE010E949601F9
:1003C000F1CF8B8DFE01E80FF11DE35AFF4FF08254
:1003D0009FB7F8940B8FEA89FB89808180620AC0FD
:1003E0009FB7F894EE89FF896083E889F989808155
:1003F0008370806480839FBF81E090E0DF91CF9124
:100400001F910F91FF90EF900895CF93DF93EC0130
:10041000888D8823C9F0EA89FB89808185FD05C024
:10042000A889B9898C9186FD0FC00FB607FCF5CF5E
:10043000808185FFF2CFA889B9898C9185FFEDCFA6
:10044000CE010E949601E7CFDF91CF910895CF9220
:10045000DF92EF92FF920F931F93CF93DF936C0184
:100460007A018B01C0E0D0E0CE15DF0581F0D80124
:100470006D918D01D601ED91FC910190F081E02DFF
:10048000C6010995892B11F02196EECF7E01C70197
:10049000DF91CF911F910F91FF90EF90DF90CF9060
:1004A0000895089580E090E00895789484B582607E
:1004B00084BD84B5816084BD85B5826085BD85B508
:1004C000816085BDEEE6F0E0808181608083E1E8B7
:1004D000F0E01082808182608083808181608083EF
:1004E000E0E8F0E0808181608083E1EBF0E08081F2
:1004F00084608083E0EBF0E0808181608083EAE7C4
:10050000F0E080818460808380818260808380814C
:10051000816080838081806880831092C10008950B
:100520003FB7F89480916B0190916C01A0916D019F
:10053000B0916E0126B5A89B05C02F3F19F001961A
:10054000A11DB11D3FBFBA2FA92F982F8827820F59
:10055000911DA11DB11DBC01CD0142E0660F771FA9
:10056000881F991F4A95D1F708958F929F92AF9255
:10057000BF92CF92DF92EF92FF920E9490024B01C6
:100580005C0184EFC82EDD24D394E12CF12C0E9471
:100590009002DC01CB0188199909AA09BB09883EA0
:1005A0009340A105B10598F321E0C21AD108E108F2
:1005B000F10888EE880E83E0981EA11CB11CC114BE
:1005C000D104E104F10419F7FF90EF90DF90CF9090
:1005D000BF90AF909F908F9008952FB7F89460913F
:1005E0006701709168018091690190916A012FBF44
:1005F00008950E94F80B0F931F93CF93DF93EC01A4
:1006000088819981009729F02A813B812617370735
:1006100088F48B016F5F7F4F0E94320B009761F06F
:10062000998388831B830A832C813D81232B11F4BA
:10063000FC01108281E001C080E0DF91CF911F9129
:100640000F910895EF92FF920F931F93CF93DF9333
:100650006115710511F480E01CC041155105C1F010
:100660007B01EC018C819D818A01080F191FB80163
:10067000CE010E94FB02882371F3288139818C818D
:100680009D81B701820F931F0E94060C1D830C836E
:1006900081E0DF91CF911F910F91FF90EF9008952E
:1006A000CF93DF93EC0188819981009711F00E942C
:1006B000A90A198218821D821C821B821A82DF916C
:1006C000CF910895EF92FF920F931F93CF93DF93F3
:1006D000EC01198218821B821A821D821C8261150C
:1006E000710521F18B01FB0101900020E9F73197A1
:1006F0007F01E61AF70AB7010E94FB02811109C0C7
:10070000CE01DF91CF911F910F91FF90EF900C944C
:100710005003FD82EC82B80188819981DF91CF91ED
:100720001F910F91FF90EF900C94060CDF91CF91E9
:100730001F910F91FF90EF900895CF92DF92EF926B
:10074000FF920F931F93CF93DF93CDB7DEB7A1979F
:100750000FB6F894DEBF0FBECDBF7C01CB01BA014E
:10076000F7011182108213821282158214828E0187
:100770000F5F1F4F22E044E00E942F066C0100979C
:1007800071F0FC0101900020E9F731978F01081BFF
:10079000190BB801C7010E94FB02811104C0C701F7
:1007A0000E94500308C0F70115830483B6018081BD
:1007B00091810E94060CA1960FB6F894DEBF0FBE81
:1007C000CDBFDF91CF911F910F91FF90EF90DF9000
:1007D000CF900895CF93DF93EC016115710561F01F
:1007E000FB0101900020E9F73197AF01461B570B41
:1007F0000E942203811103C0CE010E945003CE014A
:10080000DF91CF910895CF93DF93EC01FB014481F9
:100810005581608171810E942203811103C0CE0144
:100820000E945003CE01DF91CF9108951F920F9245
:100830000FB60F9211242F933F934F935F936F93B3
:100840007F938F939F93AF93BF93EF93FF938FE625
:1008500091E00E949601FF91EF91BF91AF919F911E
:100860008F917F916F915F914F913F912F910F9059
:100870000FBE0F901F9018951F920F920FB60F92F8
:1008800011242F938F939F93EF93FF93E0917F0118
:10089000F09180018081E0918501F091860182FDD7
:1008A00012C09081809188018F5F8F7320918901A0
:1008B000821751F0E0918801F0E0E159FE4F958FE9
:1008C0008093880101C08081FF91EF919F918F916A
:1008D0002F910F900FBE0F901F9018951F920F929F
:1008E0000FB60F9211242F933F938F939F93AF9343
:1008F000BF938091670190916801A0916901B091C7
:100900006A013091660123E0230F2D3720F4019610
:10091000A11DB11D05C026E8230F0296A11DB11D22
:10092000209366018093670190936801A093690109
:10093000B0936A0180916B0190916C01A0916D015F
:10094000B0916E010196A11DB11D80936B01909332
:100950006C01A0936D01B0936E01BF91AF919F9117
:100960008F913F912F910F900FBE0F901F90189570
:10097000EFE6F1E01382128288EE93E0A0E0B0E0AF
:1009800084839583A683B7838AE091E091838083F3
:1009900085EC90E09587848784EC90E09787868744
:1009A00080EC90E0918B808B81EC90E0938B828B3C
:1009B00082EC90E0958B848B86EC90E0978B868B15
:1009C000118E128E138E148E0895CF93DF93CDB7B0
:1009D000DEB760970FB6F894DEBF0FBECDBF0E94A2
:1009E0005502E0917F01F091800182E08083E091E7
:1009F0007B01F0917C011082E0917D01F0917E01FC
:100A00008FEC808310928701E0918301F091840143
:100A100086E08083E0918101F09182018081806194
:100A20008083E0918101F0918201808188608083E0
:100A3000E0918101F0918201808180688083E09162
:100A40008101F091820180818F7D80830E94FA0074
:100A50000E944601BC01990F880B990B0E948608E1
:100A600029E23CE54FE950E40E94C10820E030EC67
:100A70004FE754E40E947A0C9B01AC0169E27CE5EB
:100A80008FE990E40E947A0C20E030E040E85FE3D8
:100A90000E940D0C20E03CE849E357E40E94C108A5
:100AA0006B017C01AB01BC01CE0101960E949D034C
:100AB0006BE171E0CE0107960E946203BE016F5F99
:100AC0007F4FCE0107960E94030468E271E00E9406
:100AD000EA030E942D018F8198850E94A90A8981CD
:100AE0009A810E94A90AC701B6010E94EC0C9B01E1
:100AF000AC01245B314941095109AAE5B0E00E94EB
:100B00009E092CED3DEC40E050E00E947F09CA01B7
:100B1000B9010E9486086D877E878F87988B6093C6
:100B200062017093630180936401909365010E9458
:100B3000ED020E9484086B017C0160935E0170935A
:100B40005F0180936001909361012D853E854F8503
:100B5000588960E070E084EB92E40E940D0C4B0138
:100B60005C012091560130915701409158015091FC
:100B700059010E940D0C2B013C0120915A0130912A
:100B80005B0140915C0150915D01C701B6010E947B
:100B90000D0C9B01AC01C301B2010E947A0C20E054
:100BA00030E0A9010E94C108A50194010E940E0C29
:100BB0002B013C018092560190925701A09258015E
:100BC000B0925901C0925A01D0925B01E0925C014F
:100BD000F0925D014D855E856F857889CE01019625
:100BE0000E949D036EE271E0CE0107960E946203AF
:100BF000BE016F5F7F4FCE0107960E94030465E33D
:100C000071E00E94EA030E942D018F8198850E9465
:100C1000A90A89819A810E94A90AB301A201CE0181
:100C200001960E949D036EE371E0CE0107960E943B
:100C30006203BE016F5F7F4FCE0107960E940304DF
:100C40000E942D018F8198850E94A90A89819A812D
:100C50000E94A90A0E941F010E94B502F9CEEF92DC
:100C60000F931F93CF93DF93E80147FD02C034E059
:100C700001C034E1042E000C550B57FF03C0519501
:100C800041955109E32E022F242FAE010E945206F6
:100C9000CE01DF91CF911F910F91EF900895F894BD
:100CA0000C94280DA9E0B0E0E8E5F6E00C94AF095B
:100CB0006A01122FB02E2BE3201720F0FF24F394AB
:100CC000F00E02C02CE3F22E0F2D27E0AE014F5F95
:100CD0005F4F0E94AC07BC014981842F897081302D
:100CE00031F0E1FC06C0E0FE06C090E205C09DE2E6
:100CF00003C09BE201C090E05E2D507143FF3CC0F9
:100D0000911102C083E001C084E0811718F4212F03
:100D1000281B01C020E051110BC0F601822F30E2E8
:100D2000882319F031938150FBCFC20ED11C20E0F3
:100D3000992329F0D6019C93F60131966F01C601E3
:100D40000396E2FE0AC03EE4D6013C9341E41196CC
:100D50004C93119712963C9306C03EE6F601308301
:100D600041E641833283FC01322F40E2332309F410
:100D700042C041933150FACF42FF44C0911102C0AA
:100D800083E001C084E0811718F4212F281B01C0E3
:100D900020E051110BC0F601822F30E2882319F0B8
:100DA00031938150FBCFC20ED11C20E0992329F052
:100DB000D6019C93F60131966F01C6010396E2FEBF
:100DC0000BC039E4D6013C933EE411963C93119755
:100DD00036E412963C9307C039E6F60130833EE6CE
:100DE000318336E63283FC01322F40E2332319F09F
:100DF00041933150FBCFFC01E20FF11D10828EEFC9
:100E00009FEFA6C021E030E0911102C020E030E069
:100E1000161617061CF4FB01319602C0E1E0F0E063
:100E20002E0F3F1FBB2021F0EB2DF0E0319602C0CA
:100E3000E0E0F0E02E0F3F1FE12FF0E02E173F071C
:100E40001CF4121B212F01C020E08E2D887159F453
:100E5000F601822F30E2882319F031938150FBCFC5
:100E6000C20ED11C20E0992329F0D6019C93F601F3
:100E700031966F0151110BC0F601822F90E3882348
:100E800019F091938150FBCFC20ED11C20E00F2DA1
:100E9000060F9A81342F307144FF03C0913309F457
:100EA0000150101624F4093018F008E001C001E0E8
:100EB000AB0177FF02C040E050E0FB01E41BF50B03
:100EC000A1E0B0E0AC0FBD1FEA0FFB1F8EE2A82E21
:100ED0004B01801A91080B2D10E011950195110915
:100EE0004F3FBFEF5B0721F4D601AC9211966D0125
:100EF000641775072CF08416950614F4818101C0DF
:100F000080E3415051093196D60111967D01401779
:100F1000510724F0D6018C936701E2CF641775075F
:100F200039F4963320F4953319F4311101C081E37B
:100F3000F6018083F701822F90E2882319F09193C4
:100F40008150FBCFF701E20FF11D108280E090E0AD
:100F50002996ECE00C94CB09283008F027E03327E1
:100F6000DA01990F311D87FD9160009661057105C9
:100F700039F432602E5F3D9330E32A95E1F708950E
:100F80009F3F30F080387105610509F03C5F3C5FA0
:100F90003D93913008F08068911DDF93CF931F93AC
:100FA0000F93FF92EF92192F987F9695E92F9695C0
:100FB0009695E90FFF27EE53FF4F99273327EE242D
:100FC000FF24A701E70105900894079428F4360F41
:100FD000E71EF81E491F511D660F771F881F991FB6
:100FE0000694A1F70590079428F4E70EF81E491F10
:100FF000561FC11D770F881F991F661F0694A1F702
:101000000590079428F4F80E491F561FC71FD11DDD
:10101000880F991F661F771F0694A1F70590079404
:1010200020F4490F561FC71FD81F990F661F771F3F
:10103000881F0694A9F784911095177041F0D695F2
:10104000C79557954795F794E7941A95C1F7E8E641
:10105000F0E0689415901591359165919591059002
:101060007FE27395E118F10A430B560BC90BD009C7
:10107000C0F7E10CF11E431F561FC91FD01D7EF49F
:10108000703311F48A95E6CFE894015030F0080FE0
:101090000AF40027021708F4202F2395022F7A3331
:1010A00028F079E37D932A95E9F710C07D932A957E
:1010B00089F6069497956795379517951794E118D3
:1010C000F10A430B560BC90BD00998F023957E917A
:1010D00073957A3308F070E37C932013B8F77E9110
:1010E00070617D9330F0839571E37D9370E32A9571
:1010F000E1F71124EF90FF900F911F91CF91DF91B5
:10110000992787FD90950895E89409C097FB3EF4D0
:1011100090958095709561957F4F8F4F9F4F992344
:10112000A9F0F92F96E9BB279395F69587957795C2
:101130006795B795F111F8CFFAF4BB0F11F460FF82
:101140001BC06F5F7F4F8F4F9F4F16C0882311F0DA
:1011500096E911C0772321F09EE8872F762F05C0EE
:10116000662371F096E8862F70E060E02AF09A9589
:10117000660F771F881FDAF7880F9695879597F97E
:1011800008950E94D4080C9445090E94370938F04C
:101190000E943E0920F0952311F00C942E090C9426
:1011A000340911240C9479090E94560970F3959F13
:1011B000C1F3950F50E0551F629FF001729FBB274E
:1011C000F00DB11D639FAA27F00DB11DAA1F649FEA
:1011D0006627B00DA11D661F829F2227B00DA11D9D
:1011E000621F739FB00DA11D621F839FA00D611D23
:1011F000221F749F3327A00D611D231F849F600D44
:10120000211D822F762F6A2F11249F5750409AF06C
:10121000F1F088234AF0EE0FFF1FBB1F661F771FF8
:10122000881F91505040A9F79E3F510580F00C94C3
:101230002E090C9479095F3FE4F3983ED4F3869528
:1012400077956795B795F795E7959F5FC1F7FE2B63
:10125000880F911D9695879597F9089597F99F673F
:1012600080E870E060E008959FEF80EC089500242E
:101270000A941616170618060906089500240A94FB
:1012800012161306140605060895092E0394000C81
:1012900011F4882352F0BB0F40F4BF2B11F460FF10
:1012A00004C06F5F7F4F8F4F9F4F089557FD905839
:1012B000440F551F59F05F3F71F04795880F97FB1A
:1012C000991F61F09F3F79F08795089512161306D4
:1012D0001406551FF2CF4695F1DF08C01616170603
:1012E0001806991FF1CF8695710561050894089538
:1012F000E894BB2766277727CB0197F90895052E39
:1013000097FB1EF400940E94960957FD07D00E9497
:10131000E00907FC03D04EF40C94960950954095D3
:10132000309521953F4F4F4F5F4F08959095809591
:10133000709561957F4F8F4F9F4F08950E94020ACD
:10134000A59F900DB49F900DA49F800D911D112419
:1013500008952F923F924F925F926F927F928F9259
:101360009F92AF92BF92CF92DF92EF92FF920F9334
:101370001F93CF93DF93CDB7DEB7CA1BDB0B0FB63E
:10138000F894DEBF0FBECDBF09942A8839884888FB
:101390005F846E847D848C849B84AA84B984C88491
:1013A000DF80EE80FD800C811B81AA81B981CE0F88
:1013B000D11D0FB6F894DEBF0FBECDBFED0108956D
:1013C000A1E21A2EAA1BBB1BFD010DC0AA1FBB1F49
:1013D000EE1FFF1FA217B307E407F50720F0A21BBB
:1013E000B30BE40BF50B661F771F881F991F1A9428
:1013F00069F760957095809590959B01AC01BD0152
:10140000CF010895A29FB001B39FC001A39F700DAB
:10141000811D1124911DB29F700D811D1124911DFC
:1014200008950F931F93CF93DF938230910510F4AB
:1014300082E090E0E0910E02F0910F0220E030E0B7
:10144000A0E0B0E0309719F1408151810281138111
:1014500048175907C8F08417950769F4109731F0B9
:1014600012960C93129713961C9327C000930E02AA
:1014700010930F0222C02115310519F042175307AE
:1014800018F49A01BD01EF01DF01F801DBCF21154E
:101490003105F9F0281B390B2430310580F48A819D
:1014A0009B816115710521F0FB019383828304C048
:1014B00090930F0280930E02FE01329644C0FE010B
:1014C000E20FF31F819391932250310939832883CE
:1014D0003AC020910C0230910D02232B41F420914F
:1014E00002013091030130930D0220930C022091F0
:1014F0000001309101012115310541F42DB73EB7AE
:101500004091040150910501241B350BE0910C0220
:10151000F0910D02E217F307A0F42E1B3F0B2817E2
:10152000390778F0AC014E5F5F4F2417350748F05C
:101530004E0F5F1F50930D0240930C0281939193C5
:1015400002C0E0E0F0E0CF01DF91CF911F910F9159
:101550000895CF93DF93009709F481C0FC0132977F
:1015600013821282A0910E02B0910F02109781F4A3
:1015700020813181820F931F20910C0230910D0246
:101580002817390751F5F0930D02E0930C0267C05C
:10159000ED0120E030E0CE17DF0740F44A815B81A7
:1015A0009E0141155105F1F0EA01F5CFD383C283C5
:1015B00040815181840F951FC817D90759F488813C
:1015C0009981840F951F0296918380838A819B81E4
:1015D000938382832115310529F4F0930F02E09360
:1015E0000E023DC0E901FB83EA8349915991C40F82
:1015F000D51FEC17FD0761F480819181840F951F41
:101600000296E90199838883828193819B838A83EF
:10161000E0E0F0E012968D919C911397009719F0FD
:10162000FD01DC01F7CF8D919C9111979D012E5FFB
:101630003F4F820F931F20910C0230910D0228170B
:10164000390769F4309729F410920F0210920E02B4
:1016500002C013821282B0930D02A0930C02DF919C
:10166000CF910895A0E0B0E0E8E3FBE00C94AD0971
:10167000EC01009721F4CB010E94110AB4C0FC01D7
:10168000E60FF71F9C0122503109E217F30708F417
:10169000A8C0D9010D911C91119706171707B0F03A
:1016A0000530110508F49BC0C801049786179707F9
:1016B00008F495C002501109061B170B01931193F2
:1016C0006D937C93CF010E94A90A89C05B01A01A87
:1016D000B10A4C01800E911EA0910E02B0910F0232
:1016E000612C712CE12CF12C109709F446C08D91DE
:1016F0009C911197A815B905B1F56C0142E0C40E93
:10170000D11CCA14DB0478F14C018A189B086401CF
:1017100042E0C40ED11C1296BC9012971396AC9165
:10172000B5E0CB16D10440F0B282A38391828082CF
:10173000D9016D937C9309C00E5F1F4F800F911FDD
:10174000F90191838083EB2DFA2FE114F10431F03C
:10175000D7011396FC93EE93129741C0F0930F02BA
:10176000E0930E023CC06816790608F43C017D0146
:1017700012960D90BC91A02DB7CF80910C02909144
:101780000D0288169906E1F466167706C8F4809172
:10179000000190910101009741F48DB79EB74091EF
:1017A000040150910501841B950BE817F907C8F453
:1017B000F0930D02E0930C02F901718360830FC076
:1017C000CB010E94110A7C01009759F0A801BE01CB
:1017D0000E94FD0BCE010E94A90AC70104C0CE01E0
:1017E00002C080E090E0CDB7DEB7EEE00C94C9090E
:1017F00081E090E0F8940C94280DFB01DC0102C01C
:1018000001900D9241505040D8F70895FB01DC0142
:1018100001900D920020E1F708955058BB27AA27A8
:101820000E94250C0C9445090E94370938F00E944B
:101830003E0920F039F49F3F19F426F40C94340942
:101840000EF4E095E7FB0C942E09E92F0E9456094F
:1018500058F3BA17620773078407950720F079F4E5
:10186000A6F50C9478090EF4E0950B2EBA2FA02D56
:101870000B01B90190010C01CA01A0011124FF273D
:10188000591B99F0593F50F4503E68F11A16F04038
:10189000A22F232F342F4427585FF3CF4695379537
:1018A0002795A795F0405395C9F77EF41F16BA0BFC
:1018B000620B730B840BBAF09150A1F0FF0FBB1FAA
:1018C000661F771F881FC2F70EC0BA0F621F731FF3
:1018D000841F48F4879577956795B795F7959E3F50
:1018E00008F0B0CF9395880F08F09927EE0F9795E1
:1018F000879508950E948E0C0C9445090E943E091C
:1019000058F00E94370940F029F45F3F29F00C9409
:101910002E0951110C9479090C9434090E9456092E
:1019200068F39923B1F3552391F3951B550BBB270E
:10193000AA2762177307840738F09F5F5F4F220F53
:10194000331F441FAA1FA9F335D00E2E3AF0E0E84A
:1019500032D091505040E695001CCAF72BD0FE2F94
:1019600029D0660F771F881FBB1F26173707480728
:10197000AB07B0E809F0BB0B802DBF01FF279358E0
:101980005F4F3AF09E3F510578F00C942E090C946D
:1019900079095F3FE4F3983ED4F386957795679590
:1019A000B795F7959F5FC9F7880F911D9695879515
:1019B00097F90895E1E0660F771F881FBB1F621734
:1019C00073078407BA0720F0621B730B840BBA0BF2
:1019D000EE1F88F7E09508950E94F30C6894B1110A
:1019E0000C94790908950E945E0988F09F5798F039
:1019F000B92F9927B751B0F0E1F0660F771F881F14
:101A0000991F1AF0BA95C9F714C0B13091F00E942D
:101A10007809B1E008950C947809672F782F88270A
:101A2000B85F39F0B93FCCF3869577956795B39554
:101A3000D9F73EF490958095709561957F4F8F4FC3
:101A40009F4F0895EE0FFF1F0590F491E02D09942C
:041A5000F894FFCF38
:101A540000001002800000000000B80127025901B4
:101A640005028A0168017C010D0A005265736973DD
:101A740074616E63653A2000206F686D730042657F
:101A84006E643A200020646567726565730043756F
:101A94007272656E7420636F6E74726F6C207661FF
:061AA4006C75653A20009C
:00000001FF
