:100000000C945D000C9485000C9485000C94850084
:100010000C9485000C9485000C9485000C9485004C
:100020000C9485000C9485000C9485000C9485003C
:100030000C9485000C9485000C9485000C9485002C
:100040000C94F4020C9485000C94C2020C949C0253
:100050000C9485000C9485000C9485000C9485000C
:100060000C9485000C9485000000000024002700FB
:100070002A0000000000250028002B0004040404CE
:100080000404040402020202020203030303030342
:10009000010204081020408001020408102001021F
:1000A00004081020000000080002010000030407FB
:1000B00000000000000000003E0311241FBECFEF2F
:1000C000D8E0DEBFCDBF11E0A0E0B1E0E2E2F9E0B0
:1000D00002C005900D92A631B107D9F721E0A6E143
:1000E000B1E001C01D92AE3BB207E1F710E0CDE5F3
:1000F000D0E004C02197FE010E948904CC35D107CD
:10010000C9F70E946B030C9426040C940000E7EAE4
:10011000F0E09491E3E9F0E02491EFE7F0E0E4917E
:10012000EE2309F43CC0992339F1933091F038F46F
:100130009130A9F0923001F594B59F7D12C09730AF
:1001400091F09830A1F09430B9F4909180009F7DA7
:1001500003C0909180009F77909380000DC094B56C
:100160009F7794BD09C09091B0009F7703C0909194
:10017000B0009F7D9093B000F0E0EE0FFF1FEE58AF
:10018000FF4FA591B4919FB7F894811104C08C9151
:100190002095282302C0EC912E2B2C939FBF08950D
:1001A000E3E9F0E04491EFE7F0E02491222399F0B5
:1001B00030E0220F331FF901E859FF4FA591B491A8
:1001C000F901EE58FF4F259134912FB7F894EC9137
:1001D000E42BEC932FBF009711F480E004C08F3F15
:1001E000910519F481E00C948700E7EAF0E0E491CE
:1001F000E330F9F048F4E130B9F0E230A1F594B51C
:10020000906294BD88BD0895E730E9F0E83019F1B7
:10021000E43049F520918000206220938000909383
:100220008B0080938A00089594B5906894BD87BD33
:100230000895209180002068209380009093890089
:100240008093880008959091B00090689093B000DA
:100250008093B30008959091B00090629093B000A5
:100260008093B4000895803891050CF0BBCFB5CFD2
:1002700080E480937C0080917A00806480937A008F
:1002800080917A0086FDFCCF8091780020917900E2
:1002900090E0922B0895FC01538D448D252F30E082
:1002A000842F90E0821B930B541710F0CF96089583
:1002B00001970895FC01918D828D981761F0828DD0
:1002C000DF01A80FB11D5D968C91928D9F5F9F738A
:1002D000928F90E008958FEF9FEF0895FC01918D2C
:1002E000828D981731F0828DE80FF11D858D90E099
:1002F00008958FEF9FEF0895FC01918D228D892F36
:1003000090E0805C9F4F821B91098F73992708951D
:10031000FC01848DDF01A80FB11DA35ABF4F2C91A2
:10032000848D90E001968F739927848FA689B78971
:100330002C93A089B1898C91837080648C93938D68
:10034000848D981306C00288F389E02D80818F7D0B
:1003500080830895EF92FF920F931F93CF93DF93C3
:10036000EC0181E0888F9B8D8C8D981305C0E88906
:10037000F989808185FD26C0F62E0B8D10E00F5F78
:100380001F4F0F731127E02E8C8DE8120CC00FB693
:1003900007FCFACFE889F989808185FFF5CFCE0186
:1003A0000E948801F1CF8B8DFE01E80FF11DE35A09
:1003B000FF4FF0829FB7F8940B8FEA89FB89808109
:1003C00080620AC09FB7F894EE89FF896083E8894C
:1003D000F98980818370806480839FBF81E090E091
:1003E000DF91CF911F910F91FF90EF900895CF93E0
:1003F000DF93EC01888D8823C9F0EA89FB8980812D
:1004000085FD05C0A889B9898C9186FD0FC00FB6FE
:1004100007FCF5CF808185FFF2CFA889B9898C913F
:1004200085FFEDCFCE010E948801E7CFDF91CF910C
:100430000895CF92DF92EF92FF920F931F93CF9385
:10044000DF936C017A018B01C0E0D0E0CE15DF05AF
:1004500081F0D8016D918D01D601ED91FC91019053
:10046000F081E02DC6010995892B11F02196EECF80
:100470007E01C701DF91CF911F910F91FF90EF9007
:10048000DF90CF900895089580E090E008957894EB
:1004900084B5826084BD84B5816084BD85B5826089
:1004A00085BD85B5816085BDEEE6F0E08081816027
:1004B0008083E1E8F0E01082808182608083808127
:1004C00081608083E0E8F0E0808181608083E1EBFF
:1004D000F0E0808184608083E0EBF0E080818160E7
:1004E0008083EAE7F0E0808184608083808182609D
:1004F0008083808181608083808180688083109286
:10050000C1000895009799F0FC0101900020E9F7DF
:100510003197AF01481B590BE0912101F091220165
:100520000280F381E02DBC0181E291E0099480E03A
:1005300090E008950E9484041F920F920FB60F92CC
:1005400011242F933F934F935F936F937F938F93D8
:100550009F93AF93BF93EF93FF9381E291E00E944B
:100560008801FF91EF91BF91AF919F918F917F9102
:100570006F915F914F913F912F910F900FBE0F9010
:100580001F9018951F920F920FB60F9211242F9360
:100590008F939F93EF93FF93E0913101F09132019C
:1005A0008081E0913701F091380182FD12C0908185
:1005B00080913A018F5F8F7320913B01821751F038
:1005C000E0913A01F0E0EF5DFE4F958F80933A01A4
:1005D00001C08081FF91EF919F918F912F910F909A
:1005E0000FBE0F901F9018951F920F920FB60F928B
:1005F00011242F933F938F939F93AF93BF93809139
:100600001D0190911E01A0911F01B0912001309118
:100610001C0123E0230F2D3720F40196A11DB11DED
:1006200005C026E8230F0296A11DB11D20931C01D1
:1006300080931D0190931E01A0931F01B093200190
:100640008091180190911901A0911A01B0911B019C
:100650000196A11DB11D8093180190931901A093DB
:100660001A01B0931B01BF91AF919F918F913F9160
:100670002F910F900FBE0F901F901895E1E2F1E0BF
:100680001382128288EE93E0A0E0B0E08483958329
:10069000A683B78384E091E09183808385EC90E02A
:1006A0009587848784EC90E09787868780EC90E03C
:1006B000918B808B81EC90E0938B828B82EC90E02D
:1006C000958B848B86EC90E0978B868B118E128EA7
:1006D000138E148E0895CF93DF93CDB7DEB7A19715
:1006E0000FB6F894DEBF0FBECDBF0E944702E09167
:1006F0003101F091320182E08083E0912D01F0918F
:100700002E011082E0912F01F09130018FEC808357
:1007100010923901E0913501F091360186E0808335
:10072000E0913301F0913401808180618083E09118
:100730003301F0913401808188608083E09133013E
:10074000F0913401808180688083E0913301F091E1
:10075000340180818F7D808381E291E00E94F701E6
:100760008AE0C82ED12CE12CF12C98EC892E912C0A
:10077000A12CB12C0E94380190931701809316018F
:100780002C01990F6608770877FE26C0E0912101B9
:10079000F09122010190F081E02D6DE281E291E083
:1007A000099522273327A901241935094609570934
:1007B00019A28E010F5D1F4FCA01B901A701960151
:1007C0000E945304605DF80162938F012115310589
:1007D0004105510589F715C0A301920119A28E01A7
:1007E0000F5D1F4FCA01B901A70196010E94530472
:1007F000605DF80162938F012115310541055105B6
:1008000089F7C8010E94820282E191E00E9482027F
:100810002091160130911701C901330FAA0BBB0BB0
:100820009C01AD01245F314041095109AFEFB0E0B7
:100830000E944804A50194010E94290430931701E5
:1008400020931601C9010E94D00094CFF8940C9413
:100850008F04052E97FB1EF400940E94400457FD60
:1008600007D00E94530407FC03D04EF40C944004BC
:1008700050954095309521953F4F4F4F5F4F0895CC
:1008800090958095709561957F4F8F4F9F4F0895FC
:100890000E947504A59F900DB49F900DA49F800D9C
:1008A000911D11240895A1E21A2EAA1BBB1BFD0164
:1008B0000DC0AA1FBB1FEE1FFF1FA217B307E4073F
:1008C000F50720F0A21BB30BE40BF50B661F771F97
:1008D000881F991F1A9469F7609570958095909577
:1008E0009B01AC01BD01CF010895A29FB001B39F50
:1008F000C001A39F700D811D1124911DB29F700D29
:10090000811D1124911D089581E090E0F8940C94CC
:100910008F04EE0FFF1F0590F491E02D0994F894D9
:02092000FFCF07
:1009220000000000AA0119024B01F7017C015A01E3
:060932006E010D0A000039
:00000001FF
